{
  "fixtures/real-world/governance-downgrade/current/GovernedVault.sol": {
    "GovernedVault": {
      "abi": [
        {
          "inputs": [
            {
              "internalType": "address",
              "name": "initialOwner",
              "type": "address"
            },
            {
              "internalType": "address",
              "name": "initialAsset",
              "type": "address"
            }
          ],
          "stateMutability": "nonpayable",
          "type": "constructor"
        },
        {
          "anonymous": false,
          "inputs": [
            {
              "indexed": true,
              "internalType": "address",
              "name": "implementation",
              "type": "address"
            },
            {
              "indexed": false,
              "internalType": "bytes",
              "name": "data",
              "type": "bytes"
            }
          ],
          "name": "Upgraded",
          "type": "event"
        },
        {
          "anonymous": false,
          "inputs": [
            {
              "indexed": false,
              "internalType": "uint256",
              "name": "value",
              "type": "uint256"
            }
          ],
          "name": "ValueUpdated",
          "type": "event"
        },
        {
          "inputs": [],
          "name": "CONFIG_ROLE",
          "outputs": [
            {
              "internalType": "bytes32",
              "name": "",
              "type": "bytes32"
            }
          ],
          "stateMutability": "view",
          "type": "function"
        },
        {
          "inputs": [],
          "name": "DEFAULT_ADMIN_ROLE",
          "outputs": [
            {
              "internalType": "bytes32",
              "name": "",
              "type": "bytes32"
            }
          ],
          "stateMutability": "view",
          "type": "function"
        },
        {
          "inputs": [],
          "name": "GUARDIAN_ROLE",
          "outputs": [
            {
              "internalType": "bytes32",
              "name": "",
              "type": "bytes32"
            }
          ],
          "stateMutability": "view",
          "type": "function"
        },
        {
          "inputs": [],
          "name": "UPGRADER_ROLE",
          "outputs": [
            {
              "internalType": "bytes32",
              "name": "",
              "type": "bytes32"
            }
          ],
          "stateMutability": "view",
          "type": "function"
        },
        {
          "inputs": [],
          "name": "asset",
          "outputs": [
            {
              "internalType": "address",
              "name": "",
              "type": "address"
            }
          ],
          "stateMutability": "view",
          "type": "function"
        },
        {
          "inputs": [
            {
              "internalType": "bytes32",
              "name": "role",
              "type": "bytes32"
            },
            {
              "internalType": "address",
              "name": "account",
              "type": "address"
            }
          ],
          "name": "grantRole",
          "outputs": [],
          "stateMutability": "nonpayable",
          "type": "function"
        },
        {
          "inputs": [],
          "name": "owner",
          "outputs": [
            {
              "internalType": "address",
              "name": "",
              "type": "address"
            }
          ],
          "stateMutability": "view",
          "type": "function"
        },
        {
          "inputs": [],
          "name": "pause",
          "outputs": [],
          "stateMutability": "nonpayable",
          "type": "function"
        },
        {
          "inputs": [],
          "name": "paused",
          "outputs": [
            {
              "internalType": "bool",
              "name": "",
              "type": "bool"
            }
          ],
          "stateMutability": "view",
          "type": "function"
        },
        {
          "inputs": [
            {
              "internalType": "bytes32",
              "name": "role",
              "type": "bytes32"
            },
            {
              "internalType": "address",
              "name": "account",
              "type": "address"
            }
          ],
          "name": "revokeRole",
          "outputs": [],
          "stateMutability": "nonpayable",
          "type": "function"
        },
        {
          "inputs": [
            {
              "internalType": "uint256",
              "name": "newValue",
              "type": "uint256"
            }
          ],
          "name": "setValue",
          "outputs": [],
          "stateMutability": "nonpayable",
          "type": "function"
        },
        {
          "inputs": [
            {
              "internalType": "address",
              "name": "newImplementation",
              "type": "address"
            },
            {
              "internalType": "bytes",
              "name": "data",
              "type": "bytes"
            }
          ],
          "name": "upgradeToAndCall",
          "outputs": [],
          "stateMutability": "payable",
          "type": "function"
        },
        {
          "inputs": [],
          "name": "value",
          "outputs": [
            {
              "internalType": "uint256",
              "name": "",
              "type": "uint256"
            }
          ],
          "stateMutability": "view",
          "type": "function"
        }
      ],
      "evm": {
        "bytecode": {
          "object": "6080604052348015600e575f80fd5b50604051610691380380610691833981016040819052602b916074565b5f80546001600160a01b039384166001600160a01b0319918216179091556002805492909316911617905560a0565b80516001600160a01b0381168114606f575f80fd5b919050565b5f80604083850312156084575f80fd5b608b83605a565b9150609760208401605a565b90509250929050565b6105e4806100ad5f395ff3fe6080604052600436106100bf575f3560e01c80635c975abb1161007c578063a217fddf11610057578063a217fddf14610209578063a4d19feb1461023c578063d547741f14610109578063f72c0d8b1461026f575f80fd5b80635c975abb146101a85780638456cb59146101d75780638da5cb5b146101eb575f80fd5b806324ea54f4146100c35780632f2ff15d1461010957806338d52e0f1461012a5780633fa4f245146101615780634f1ef286146101765780635524107714610189575b5f80fd5b3480156100ce575f80fd5b506100f67f55435dd261a4b9b3364963f7738a7a662ad9c84396d64be3365284bb7f0a504181565b6040519081526020015b60405180910390f35b348015610114575f80fd5b5061012861012336600461049d565b6102a2565b005b348015610135575f80fd5b50600254610149906001600160a01b031681565b6040516001600160a01b039091168152602001610100565b34801561016c575f80fd5b506100f660015481565b6101286101843660046104c7565b6102fb565b348015610194575f80fd5b506101286101a3366004610543565b61034c565b3480156101b3575f80fd5b505f546101c790600160a01b900460ff1681565b6040519015158152602001610100565b3480156101e2575f80fd5b506101286103d3565b3480156101f6575f80fd5b505f54610149906001600160a01b031681565b348015610214575f80fd5b506100f67f1effbbff9c66c5e59634f24fe842750c60d18891155c32dd155fc2d661a4c86d81565b348015610247575f80fd5b506100f67f82db594318110a04b6349ce48645aa69f0892751bc893d15e61d9e2b9c4630f581565b34801561027a575f80fd5b506100f67f189ab7a9244df0848122154315af71fe140f3db0fe014031783b0946b8c9d2e381565b5f547f1effbbff9c66c5e59634f24fe842750c60d18891155c32dd155fc2d661a4c86d906001600160a01b031633146102f65760405162461bcd60e51b81526004016102ed9061055a565b60405180910390fd5b505050565b61030483610433565b826001600160a01b03167f3b864ad8da4ee758946f28fb3d0eaeb4d28c980ee47bf13c0c7fe3808855cfcf838360405161033f929190610580565b60405180910390a2505050565b5f547f82db594318110a04b6349ce48645aa69f0892751bc893d15e61d9e2b9c4630f5906001600160a01b031633146103975760405162461bcd60e51b81526004016102ed9061055a565b60018290556040518281527f4273d0736f60e0dedfe745e86718093d8ec8646ebd2a60cd60643eeced5658119060200160405180910390a15050565b5f547f55435dd261a4b9b3364963f7738a7a662ad9c84396d64be3365284bb7f0a5041906001600160a01b0316331461041e5760405162461bcd60e51b81526004016102ed9061055a565b505f805460ff60a01b1916600160a01b179055565b5f547f189ab7a9244df0848122154315af71fe140f3db0fe014031783b0946b8c9d2e3906001600160a01b0316331461047e5760405162461bcd60e51b81526004016102ed9061055a565b5050565b80356001600160a01b0381168114610498575f80fd5b919050565b5f80604083850312156104ae575f80fd5b823591506104be60208401610482565b90509250929050565b5f805f604084860312156104d9575f80fd5b6104e284610482565b9250602084013567ffffffffffffffff808211156104fe575f80fd5b818601915086601f830112610511575f80fd5b81358181111561051f575f80fd5b876020828501011115610530575f80fd5b6020830194508093505050509250925092565b5f60208284031215610553575f80fd5b5035919050565b6020808252600c908201526b6d697373696e6720726f6c6560a01b604082015260600190565b60208152816020820152818360408301375f818301604090810191909152601f909201601f1916010191905056fea26469706673582212209026ace34e0337b0ffbf41931c13ee4339b9eb48f4b9f644077a0ea85e346dce64736f6c63430008190033",
          "opcodes": "PUSH1 0x80 PUSH1 0x40 MSTORE CALLVALUE DUP1 ISZERO PUSH1 0xE JUMPI PUSH0 DUP1 REVERT JUMPDEST POP PUSH1 0x40 MLOAD PUSH2 0x691 CODESIZE SUB DUP1 PUSH2 0x691 DUP4 CODECOPY DUP2 ADD PUSH1 0x40 DUP2 SWAP1 MSTORE PUSH1 0x2B SWAP2 PUSH1 0x74 JUMP JUMPDEST PUSH0 DUP1 SLOAD PUSH1 0x1 PUSH1 0x1 PUSH1 0xA0 SHL SUB SWAP4 DUP5 AND PUSH1 0x1 PUSH1 0x1 PUSH1 0xA0 SHL SUB NOT SWAP2 DUP3 AND OR SWAP1 SWAP2 SSTORE PUSH1 0x2 DUP1 SLOAD SWAP3 SWAP1 SWAP4 AND SWAP2 AND OR SWAP1 SSTORE PUSH1 0xA0 JUMP JUMPDEST DUP1 MLOAD PUSH1 0x1 PUSH1 0x1 PUSH1 0xA0 SHL SUB DUP2 AND DUP2 EQ PUSH1 0x6F JUMPI PUSH0 DUP1 REVERT JUMPDEST SWAP2 SWAP1 POP JUMP JUMPDEST PUSH0 DUP1 PUSH1 0x40 DUP4 DUP6 SUB SLT ISZERO PUSH1 0x84 JUMPI PUSH0 DUP1 REVERT JUMPDEST PUSH1 0x8B DUP4 PUSH1 0x5A JUMP JUMPDEST SWAP2 POP PUSH1 0x97 PUSH1 0x20 DUP5 ADD PUSH1 0x5A JUMP JUMPDEST SWAP1 POP SWAP3 POP SWAP3 SWAP1 POP JUMP JUMPDEST PUSH2 0x5E4 DUP1 PUSH2 0xAD PUSH0 CODECOPY PUSH0 RETURN INVALID PUSH1 0x80 PUSH1 0x40 MSTORE PUSH1 0x4 CALLDATASIZE LT PUSH2 0xBF JUMPI PUSH0 CALLDATALOAD PUSH1 0xE0 SHR DUP1 PUSH4 0x5C975ABB GT PUSH2 0x7C JUMPI DUP1 PUSH4 0xA217FDDF GT PUSH2 0x57 JUMPI DUP1 PUSH4 0xA217FDDF EQ PUSH2 0x209 JUMPI DUP1 PUSH4 0xA4D19FEB EQ PUSH2 0x23C JUMPI DUP1 PUSH4 0xD547741F EQ PUSH2 0x109 JUMPI DUP1 PUSH4 0xF72C0D8B EQ PUSH2 0x26F JUMPI PUSH0 DUP1 REVERT JUMPDEST DUP1 PUSH4 0x5C975ABB EQ PUSH2 0x1A8 JUMPI DUP1 PUSH4 0x8456CB59 EQ PUSH2 0x1D7 JUMPI DUP1 PUSH4 0x8DA5CB5B EQ PUSH2 0x1EB JUMPI PUSH0 DUP1 REVERT JUMPDEST DUP1 PUSH4 0x24EA54F4 EQ PUSH2 0xC3 JUMPI DUP1 PUSH4 0x2F2FF15D EQ PUSH2 0x109 JUMPI DUP1 PUSH4 0x38D52E0F EQ PUSH2 0x12A JUMPI DUP1 PUSH4 0x3FA4F245 EQ PUSH2 0x161 JUMPI DUP1 PUSH4 0x4F1EF286 EQ PUSH2 0x176 JUMPI DUP1 PUSH4 0x55241077 EQ PUSH2 0x189 JUMPI JUMPDEST PUSH0 DUP1 REVERT JUMPDEST CALLVALUE DUP1 ISZERO PUSH2 0xCE JUMPI PUSH0 DUP1 REVERT JUMPDEST POP PUSH2 0xF6 PUSH32 0x55435DD261A4B9B3364963F7738A7A662AD9C84396D64BE3365284BB7F0A5041 DUP2 JUMP JUMPDEST PUSH1 0x40 MLOAD SWAP1 DUP2 MSTORE PUSH1 0x20 ADD JUMPDEST PUSH1 0x40 MLOAD DUP1 SWAP2 SUB SWAP1 RETURN JUMPDEST CALLVALUE DUP1 ISZERO PUSH2 0x114 JUMPI PUSH0 DUP1 REVERT JUMPDEST POP PUSH2 0x128 PUSH2 0x123 CALLDATASIZE PUSH1 0x4 PUSH2 0x49D JUMP JUMPDEST PUSH2 0x2A2 JUMP JUMPDEST STOP JUMPDEST CALLVALUE DUP1 ISZERO PUSH2 0x135 JUMPI PUSH0 DUP1 REVERT JUMPDEST POP PUSH1 0x2 SLOAD PUSH2 0x149 SWAP1 PUSH1 0x1 PUSH1 0x1 PUSH1 0xA0 SHL SUB AND DUP2 JUMP JUMPDEST PUSH1 0x40 MLOAD PUSH1 0x1 PUSH1 0x1 PUSH1 0xA0 SHL SUB SWAP1 SWAP2 AND DUP2 MSTORE PUSH1 0x20 ADD PUSH2 0x100 JUMP JUMPDEST CALLVALUE DUP1 ISZERO PUSH2 0x16C JUMPI PUSH0 DUP1 REVERT JUMPDEST POP PUSH2 0xF6 PUSH1 0x1 SLOAD DUP2 JUMP JUMPDEST PUSH2 0x128 PUSH2 0x184 CALLDATASIZE PUSH1 0x4 PUSH2 0x4C7 JUMP JUMPDEST PUSH2 0x2FB JUMP JUMPDEST CALLVALUE DUP1 ISZERO PUSH2 0x194 JUMPI PUSH0 DUP1 REVERT JUMPDEST POP PUSH2 0x128 PUSH2 0x1A3 CALLDATASIZE PUSH1 0x4 PUSH2 0x543 JUMP JUMPDEST PUSH2 0x34C JUMP JUMPDEST CALLVALUE DUP1 ISZERO PUSH2 0x1B3 JUMPI PUSH0 DUP1 REVERT JUMPDEST POP PUSH0 SLOAD PUSH2 0x1C7 SWAP1 PUSH1 0x1 PUSH1 0xA0 SHL SWAP1 DIV PUSH1 0xFF AND DUP2 JUMP JUMPDEST PUSH1 0x40 MLOAD SWAP1 ISZERO ISZERO DUP2 MSTORE PUSH1 0x20 ADD PUSH2 0x100 JUMP JUMPDEST CALLVALUE DUP1 ISZERO PUSH2 0x1E2 JUMPI PUSH0 DUP1 REVERT JUMPDEST POP PUSH2 0x128 PUSH2 0x3D3 JUMP JUMPDEST CALLVALUE DUP1 ISZERO PUSH2 0x1F6 JUMPI PUSH0 DUP1 REVERT JUMPDEST POP PUSH0 SLOAD PUSH2 0x149 SWAP1 PUSH1 0x1 PUSH1 0x1 PUSH1 0xA0 SHL SUB AND DUP2 JUMP JUMPDEST CALLVALUE DUP1 ISZERO PUSH2 0x214 JUMPI PUSH0 DUP1 REVERT JUMPDEST POP PUSH2 0xF6 PUSH32 0x1EFFBBFF9C66C5E59634F24FE842750C60D18891155C32DD155FC2D661A4C86D DUP2 JUMP JUMPDEST CALLVALUE DUP1 ISZERO PUSH2 0x247 JUMPI PUSH0 DUP1 REVERT JUMPDEST POP PUSH2 0xF6 PUSH32 0x82DB594318110A04B6349CE48645AA69F0892751BC893D15E61D9E2B9C4630F5 DUP2 JUMP JUMPDEST CALLVALUE DUP1 ISZERO PUSH2 0x27A JUMPI PUSH0 DUP1 REVERT JUMPDEST POP PUSH2 0xF6 PUSH32 0x189AB7A9244DF0848122154315AF71FE140F3DB0FE014031783B0946B8C9D2E3 DUP2 JUMP JUMPDEST PUSH0 SLOAD PUSH32 0x1EFFBBFF9C66C5E59634F24FE842750C60D18891155C32DD155FC2D661A4C86D SWAP1 PUSH1 0x1 PUSH1 0x1 PUSH1 0xA0 SHL SUB AND CALLER EQ PUSH2 0x2F6 JUMPI PUSH1 0x40 MLOAD PUSH3 0x461BCD PUSH1 0xE5 SHL DUP2 MSTORE PUSH1 0x4 ADD PUSH2 0x2ED SWAP1 PUSH2 0x55A JUMP JUMPDEST PUSH1 0x40 MLOAD DUP1 SWAP2 SUB SWAP1 REVERT JUMPDEST POP POP POP JUMP JUMPDEST PUSH2 0x304 DUP4 PUSH2 0x433 JUMP JUMPDEST DUP3 PUSH1 0x1 PUSH1 0x1 PUSH1 0xA0 SHL SUB AND PUSH32 0x3B864AD8DA4EE758946F28FB3D0EAEB4D28C980EE47BF13C0C7FE3808855CFCF DUP4 DUP4 PUSH1 0x40 MLOAD PUSH2 0x33F SWAP3 SWAP2 SWAP1 PUSH2 0x580 JUMP JUMPDEST PUSH1 0x40 MLOAD DUP1 SWAP2 SUB SWAP1 LOG2 POP POP POP JUMP JUMPDEST PUSH0 SLOAD PUSH32 0x82DB594318110A04B6349CE48645AA69F0892751BC893D15E61D9E2B9C4630F5 SWAP1 PUSH1 0x1 PUSH1 0x1 PUSH1 0xA0 SHL SUB AND CALLER EQ PUSH2 0x397 JUMPI PUSH1 0x40 MLOAD PUSH3 0x461BCD PUSH1 0xE5 SHL DUP2 MSTORE PUSH1 0x4 ADD PUSH2 0x2ED SWAP1 PUSH2 0x55A JUMP JUMPDEST PUSH1 0x1 DUP3 SWAP1 SSTORE PUSH1 0x40 MLOAD DUP3 DUP2 MSTORE PUSH32 0x4273D0736F60E0DEDFE745E86718093D8EC8646EBD2A60CD60643EECED565811 SWAP1 PUSH1 0x20 ADD PUSH1 0x40 MLOAD DUP1 SWAP2 SUB SWAP1 LOG1 POP POP JUMP JUMPDEST PUSH0 SLOAD PUSH32 0x55435DD261A4B9B3364963F7738A7A662AD9C84396D64BE3365284BB7F0A5041 SWAP1 PUSH1 0x1 PUSH1 0x1 PUSH1 0xA0 SHL SUB AND CALLER EQ PUSH2 0x41E JUMPI PUSH1 0x40 MLOAD PUSH3 0x461BCD PUSH1 0xE5 SHL DUP2 MSTORE PUSH1 0x4 ADD PUSH2 0x2ED SWAP1 PUSH2 0x55A JUMP JUMPDEST POP PUSH0 DUP1 SLOAD PUSH1 0xFF PUSH1 0xA0 SHL NOT AND PUSH1 0x1 PUSH1 0xA0 SHL OR SWAP1 SSTORE JUMP JUMPDEST PUSH0 SLOAD PUSH32 0x189AB7A9244DF0848122154315AF71FE140F3DB0FE014031783B0946B8C9D2E3 SWAP1 PUSH1 0x1 PUSH1 0x1 PUSH1 0xA0 SHL SUB AND CALLER EQ PUSH2 0x47E JUMPI PUSH1 0x40 MLOAD PUSH3 0x461BCD PUSH1 0xE5 SHL DUP2 MSTORE PUSH1 0x4 ADD PUSH2 0x2ED SWAP1 PUSH2 0x55A JUMP JUMPDEST POP POP JUMP JUMPDEST DUP1 CALLDATALOAD PUSH1 0x1 PUSH1 0x1 PUSH1 0xA0 SHL SUB DUP2 AND DUP2 EQ PUSH2 0x498 JUMPI PUSH0 DUP1 REVERT JUMPDEST SWAP2 SWAP1 POP JUMP JUMPDEST PUSH0 DUP1 PUSH1 0x40 DUP4 DUP6 SUB SLT ISZERO PUSH2 0x4AE JUMPI PUSH0 DUP1 REVERT JUMPDEST DUP3 CALLDATALOAD SWAP2 POP PUSH2 0x4BE PUSH1 0x20 DUP5 ADD PUSH2 0x482 JUMP JUMPDEST SWAP1 POP SWAP3 POP SWAP3 SWAP1 POP JUMP JUMPDEST PUSH0 DUP1 PUSH0 PUSH1 0x40 DUP5 DUP7 SUB SLT ISZERO PUSH2 0x4D9 JUMPI PUSH0 DUP1 REVERT JUMPDEST PUSH2 0x4E2 DUP5 PUSH2 0x482 JUMP JUMPDEST SWAP3 POP PUSH1 0x20 DUP5 ADD CALLDATALOAD PUSH8 0xFFFFFFFFFFFFFFFF DUP1 DUP3 GT ISZERO PUSH2 0x4FE JUMPI PUSH0 DUP1 REVERT JUMPDEST DUP2 DUP7 ADD SWAP2 POP DUP7 PUSH1 0x1F DUP4 ADD SLT PUSH2 0x511 JUMPI PUSH0 DUP1 REVERT JUMPDEST DUP2 CALLDATALOAD DUP2 DUP2 GT ISZERO PUSH2 0x51F JUMPI PUSH0 DUP1 REVERT JUMPDEST DUP8 PUSH1 0x20 DUP3 DUP6 ADD ADD GT ISZERO PUSH2 0x530 JUMPI PUSH0 DUP1 REVERT JUMPDEST PUSH1 0x20 DUP4 ADD SWAP5 POP DUP1 SWAP4 POP POP POP POP SWAP3 POP SWAP3 POP SWAP3 JUMP JUMPDEST PUSH0 PUSH1 0x20 DUP3 DUP5 SUB SLT ISZERO PUSH2 0x553 JUMPI PUSH0 DUP1 REVERT JUMPDEST POP CALLDATALOAD SWAP2 SWAP1 POP JUMP JUMPDEST PUSH1 0x20 DUP1 DUP3 MSTORE PUSH1 0xC SWAP1 DUP3 ADD MSTORE PUSH12 0x6D697373696E6720726F6C65 PUSH1 0xA0 SHL PUSH1 0x40 DUP3 ADD MSTORE PUSH1 0x60 ADD SWAP1 JUMP JUMPDEST PUSH1 0x20 DUP2 MSTORE DUP2 PUSH1 0x20 DUP3 ADD MSTORE DUP2 DUP4 PUSH1 0x40 DUP4 ADD CALLDATACOPY PUSH0 DUP2 DUP4 ADD PUSH1 0x40 SWAP1 DUP2 ADD SWAP2 SWAP1 SWAP2 MSTORE PUSH1 0x1F SWAP1 SWAP3 ADD PUSH1 0x1F NOT AND ADD ADD SWAP2 SWAP1 POP JUMP INVALID LOG2 PUSH5 0x6970667358 0x22 SLT KECCAK256 SWAP1 0x26 0xAC 0xE3 0x4E SUB CALLDATACOPY 0xB0 SELFDESTRUCT 0xBF COINBASE SWAP4 SHR SGT 0xEE NUMBER CODECOPY 0xB9 0xEB BASEFEE DELEGATECALL 0xB9 0xF6 PREVRANDAO SMOD PUSH27 0xEA85E346DCE64736F6C6343000819003300000000000000000000 "
        }
      },
      "storageLayout": {
        "storage": [
          {
            "astId": 23,
            "contract": "fixtures/real-world/governance-downgrade/current/GovernedVault.sol:GovernedVault",
            "label": "owner",
            "offset": 0,
            "slot": "0",
            "type": "t_address"
          },
          {
            "astId": 25,
            "contract": "fixtures/real-world/governance-downgrade/current/GovernedVault.sol:GovernedVault",
            "label": "paused",
            "offset": 20,
            "slot": "0",
            "type": "t_bool"
          },
          {
            "astId": 27,
            "contract": "fixtures/real-world/governance-downgrade/current/GovernedVault.sol:GovernedVault",
            "label": "value",
            "offset": 0,
            "slot": "1",
            "type": "t_uint256"
          },
          {
            "astId": 29,
            "contract": "fixtures/real-world/governance-downgrade/current/GovernedVault.sol:GovernedVault",
            "label": "asset",
            "offset": 0,
            "slot": "2",
            "type": "t_address"
          }
        ],
        "types": {
          "t_address": {
            "encoding": "inplace",
            "label": "address",
            "numberOfBytes": "20"
          },
          "t_bool": {
            "encoding": "inplace",
            "label": "bool",
            "numberOfBytes": "1"
          },
          "t_uint256": {
            "encoding": "inplace",
            "label": "uint256",
            "numberOfBytes": "32"
          }
        }
      }
    }
  }
}