{
  "fixtures/real-world/governance-downgrade/proposed/GovernedVault.sol": {
    "GovernedVault": {
      "abi": [
        {
          "inputs": [
            {
              "internalType": "address",
              "name": "initialOwner",
              "type": "address"
            },
            {
              "internalType": "address",
              "name": "initialAsset",
              "type": "address"
            }
          ],
          "stateMutability": "nonpayable",
          "type": "constructor"
        },
        {
          "anonymous": false,
          "inputs": [
            {
              "indexed": true,
              "internalType": "address",
              "name": "implementation",
              "type": "address"
            },
            {
              "indexed": false,
              "internalType": "bytes",
              "name": "data",
              "type": "bytes"
            }
          ],
          "name": "Upgraded",
          "type": "event"
        },
        {
          "anonymous": false,
          "inputs": [
            {
              "indexed": false,
              "internalType": "uint256",
              "name": "value",
              "type": "uint256"
            }
          ],
          "name": "ValueUpdated",
          "type": "event"
        },
        {
          "inputs": [],
          "name": "asset",
          "outputs": [
            {
              "internalType": "address",
              "name": "",
              "type": "address"
            }
          ],
          "stateMutability": "view",
          "type": "function"
        },
        {
          "inputs": [],
          "name": "owner",
          "outputs": [
            {
              "internalType": "address",
              "name": "",
              "type": "address"
            }
          ],
          "stateMutability": "view",
          "type": "function"
        },
        {
          "inputs": [],
          "name": "pause",
          "outputs": [],
          "stateMutability": "nonpayable",
          "type": "function"
        },
        {
          "inputs": [],
          "name": "paused",
          "outputs": [
            {
              "internalType": "bool",
              "name": "",
              "type": "bool"
            }
          ],
          "stateMutability": "view",
          "type": "function"
        },
        {
          "inputs": [
            {
              "internalType": "uint256",
              "name": "newValue",
              "type": "uint256"
            }
          ],
          "name": "setValue",
          "outputs": [],
          "stateMutability": "nonpayable",
          "type": "function"
        },
        {
          "inputs": [
            {
              "internalType": "address",
              "name": "newOwner",
              "type": "address"
            }
          ],
          "name": "transferOwnership",
          "outputs": [],
          "stateMutability": "nonpayable",
          "type": "function"
        },
        {
          "inputs": [
            {
              "internalType": "address",
              "name": "newImplementation",
              "type": "address"
            },
            {
              "internalType": "bytes",
              "name": "data",
              "type": "bytes"
            }
          ],
          "name": "upgradeToAndCall",
          "outputs": [],
          "stateMutability": "payable",
          "type": "function"
        },
        {
          "inputs": [],
          "name": "value",
          "outputs": [
            {
              "internalType": "uint256",
              "name": "",
              "type": "uint256"
            }
          ],
          "stateMutability": "view",
          "type": "function"
        }
      ],
      "evm": {
        "bytecode": {
          "object": "6080604052348015600e575f80fd5b50604051610503380380610503833981016040819052602b916074565b5f80546001600160a01b039384166001600160a01b0319918216179091556002805492909316911617905560a0565b80516001600160a01b0381168114606f575f80fd5b919050565b5f80604083850312156084575f80fd5b608b83605a565b9150609760208401605a565b90509250929050565b610456806100ad5f395ff3fe608060405260043610610079575f3560e01c80635c975abb1161004c5780635c975abb146101105780638456cb591461013f5780638da5cb5b14610153578063f2fde38b14610171575f80fd5b806338d52e0f1461007d5780633fa4f245146100b95780634f1ef286146100dc57806355241077146100f1575b5f80fd5b348015610088575f80fd5b5060025461009c906001600160a01b031681565b6040516001600160a01b0390911681526020015b60405180910390f35b3480156100c4575f80fd5b506100ce60015481565b6040519081526020016100b0565b6100ef6100ea36600461031c565b610190565b005b3480156100fc575f80fd5b506100ef61010b366004610398565b6101e1565b34801561011b575f80fd5b505f5461012f90600160a01b900460ff1681565b60405190151581526020016100b0565b34801561014a575f80fd5b506100ef61024e565b34801561015e575f80fd5b505f5461009c906001600160a01b031681565b34801561017c575f80fd5b506100ef61018b3660046103af565b61028b565b610199836102d5565b826001600160a01b03167f3b864ad8da4ee758946f28fb3d0eaeb4d28c980ee47bf13c0c7fe3808855cfcf83836040516101d49291906103cf565b60405180910390a2505050565b5f546001600160a01b031633146102135760405162461bcd60e51b815260040161020a906103fd565b60405180910390fd5b60018190556040518181527f4273d0736f60e0dedfe745e86718093d8ec8646ebd2a60cd60643eeced5658119060200160405180910390a150565b5f546001600160a01b031633146102775760405162461bcd60e51b815260040161020a906103fd565b5f805460ff60a01b1916600160a01b179055565b5f546001600160a01b031633146102b45760405162461bcd60e51b815260040161020a906103fd565b5f80546001600160a01b0319166001600160a01b0392909216919091179055565b5f546001600160a01b031633146102fe5760405162461bcd60e51b815260040161020a906103fd565b50565b80356001600160a01b0381168114610317575f80fd5b919050565b5f805f6040848603121561032e575f80fd5b61033784610301565b9250602084013567ffffffffffffffff80821115610353575f80fd5b818601915086601f830112610366575f80fd5b813581811115610374575f80fd5b876020828501011115610385575f80fd5b6020830194508093505050509250925092565b5f602082840312156103a8575f80fd5b5035919050565b5f602082840312156103bf575f80fd5b6103c882610301565b9392505050565b60208152816020820152818360408301375f818301604090810191909152601f909201601f19160101919050565b6020808252600990820152683737ba1037bbb732b960b91b60408201526060019056fea2646970667358221220112d89504c48de29eca9dba03c27a3c468872e4a4c131bcba657733bf4732a1c64736f6c63430008190033",
          "opcodes": "PUSH1 0x80 PUSH1 0x40 MSTORE CALLVALUE DUP1 ISZERO PUSH1 0xE JUMPI PUSH0 DUP1 REVERT JUMPDEST POP PUSH1 0x40 MLOAD PUSH2 0x503 CODESIZE SUB DUP1 PUSH2 0x503 DUP4 CODECOPY DUP2 ADD PUSH1 0x40 DUP2 SWAP1 MSTORE PUSH1 0x2B SWAP2 PUSH1 0x74 JUMP JUMPDEST PUSH0 DUP1 SLOAD PUSH1 0x1 PUSH1 0x1 PUSH1 0xA0 SHL SUB SWAP4 DUP5 AND PUSH1 0x1 PUSH1 0x1 PUSH1 0xA0 SHL SUB NOT SWAP2 DUP3 AND OR SWAP1 SWAP2 SSTORE PUSH1 0x2 DUP1 SLOAD SWAP3 SWAP1 SWAP4 AND SWAP2 AND OR SWAP1 SSTORE PUSH1 0xA0 JUMP JUMPDEST DUP1 MLOAD PUSH1 0x1 PUSH1 0x1 PUSH1 0xA0 SHL SUB DUP2 AND DUP2 EQ PUSH1 0x6F JUMPI PUSH0 DUP1 REVERT JUMPDEST SWAP2 SWAP1 POP JUMP JUMPDEST PUSH0 DUP1 PUSH1 0x40 DUP4 DUP6 SUB SLT ISZERO PUSH1 0x84 JUMPI PUSH0 DUP1 REVERT JUMPDEST PUSH1 0x8B DUP4 PUSH1 0x5A JUMP JUMPDEST SWAP2 POP PUSH1 0x97 PUSH1 0x20 DUP5 ADD PUSH1 0x5A JUMP JUMPDEST SWAP1 POP SWAP3 POP SWAP3 SWAP1 POP JUMP JUMPDEST PUSH2 0x456 DUP1 PUSH2 0xAD PUSH0 CODECOPY PUSH0 RETURN INVALID PUSH1 0x80 PUSH1 0x40 MSTORE PUSH1 0x4 CALLDATASIZE LT PUSH2 0x79 JUMPI PUSH0 CALLDATALOAD PUSH1 0xE0 SHR DUP1 PUSH4 0x5C975ABB GT PUSH2 0x4C JUMPI DUP1 PUSH4 0x5C975ABB EQ PUSH2 0x110 JUMPI DUP1 PUSH4 0x8456CB59 EQ PUSH2 0x13F JUMPI DUP1 PUSH4 0x8DA5CB5B EQ PUSH2 0x153 JUMPI DUP1 PUSH4 0xF2FDE38B EQ PUSH2 0x171 JUMPI PUSH0 DUP1 REVERT JUMPDEST DUP1 PUSH4 0x38D52E0F EQ PUSH2 0x7D JUMPI DUP1 PUSH4 0x3FA4F245 EQ PUSH2 0xB9 JUMPI DUP1 PUSH4 0x4F1EF286 EQ PUSH2 0xDC JUMPI DUP1 PUSH4 0x55241077 EQ PUSH2 0xF1 JUMPI JUMPDEST PUSH0 DUP1 REVERT JUMPDEST CALLVALUE DUP1 ISZERO PUSH2 0x88 JUMPI PUSH0 DUP1 REVERT JUMPDEST POP PUSH1 0x2 SLOAD PUSH2 0x9C SWAP1 PUSH1 0x1 PUSH1 0x1 PUSH1 0xA0 SHL SUB AND DUP2 JUMP JUMPDEST PUSH1 0x40 MLOAD PUSH1 0x1 PUSH1 0x1 PUSH1 0xA0 SHL SUB SWAP1 SWAP2 AND DUP2 MSTORE PUSH1 0x20 ADD JUMPDEST PUSH1 0x40 MLOAD DUP1 SWAP2 SUB SWAP1 RETURN JUMPDEST CALLVALUE DUP1 ISZERO PUSH2 0xC4 JUMPI PUSH0 DUP1 REVERT JUMPDEST POP PUSH2 0xCE PUSH1 0x1 SLOAD DUP2 JUMP JUMPDEST PUSH1 0x40 MLOAD SWAP1 DUP2 MSTORE PUSH1 0x20 ADD PUSH2 0xB0 JUMP JUMPDEST PUSH2 0xEF PUSH2 0xEA CALLDATASIZE PUSH1 0x4 PUSH2 0x31C JUMP JUMPDEST PUSH2 0x190 JUMP JUMPDEST STOP JUMPDEST CALLVALUE DUP1 ISZERO PUSH2 0xFC JUMPI PUSH0 DUP1 REVERT JUMPDEST POP PUSH2 0xEF PUSH2 0x10B CALLDATASIZE PUSH1 0x4 PUSH2 0x398 JUMP JUMPDEST PUSH2 0x1E1 JUMP JUMPDEST CALLVALUE DUP1 ISZERO PUSH2 0x11B JUMPI PUSH0 DUP1 REVERT JUMPDEST POP PUSH0 SLOAD PUSH2 0x12F SWAP1 PUSH1 0x1 PUSH1 0xA0 SHL SWAP1 DIV PUSH1 0xFF AND DUP2 JUMP JUMPDEST PUSH1 0x40 MLOAD SWAP1 ISZERO ISZERO DUP2 MSTORE PUSH1 0x20 ADD PUSH2 0xB0 JUMP JUMPDEST CALLVALUE DUP1 ISZERO PUSH2 0x14A JUMPI PUSH0 DUP1 REVERT JUMPDEST POP PUSH2 0xEF PUSH2 0x24E JUMP JUMPDEST CALLVALUE DUP1 ISZERO PUSH2 0x15E JUMPI PUSH0 DUP1 REVERT JUMPDEST POP PUSH0 SLOAD PUSH2 0x9C SWAP1 PUSH1 0x1 PUSH1 0x1 PUSH1 0xA0 SHL SUB AND DUP2 JUMP JUMPDEST CALLVALUE DUP1 ISZERO PUSH2 0x17C JUMPI PUSH0 DUP1 REVERT JUMPDEST POP PUSH2 0xEF PUSH2 0x18B CALLDATASIZE PUSH1 0x4 PUSH2 0x3AF JUMP JUMPDEST PUSH2 0x28B JUMP JUMPDEST PUSH2 0x199 DUP4 PUSH2 0x2D5 JUMP JUMPDEST DUP3 PUSH1 0x1 PUSH1 0x1 PUSH1 0xA0 SHL SUB AND PUSH32 0x3B864AD8DA4EE758946F28FB3D0EAEB4D28C980EE47BF13C0C7FE3808855CFCF DUP4 DUP4 PUSH1 0x40 MLOAD PUSH2 0x1D4 SWAP3 SWAP2 SWAP1 PUSH2 0x3CF JUMP JUMPDEST PUSH1 0x40 MLOAD DUP1 SWAP2 SUB SWAP1 LOG2 POP POP POP JUMP JUMPDEST PUSH0 SLOAD PUSH1 0x1 PUSH1 0x1 PUSH1 0xA0 SHL SUB AND CALLER EQ PUSH2 0x213 JUMPI PUSH1 0x40 MLOAD PUSH3 0x461BCD PUSH1 0xE5 SHL DUP2 MSTORE PUSH1 0x4 ADD PUSH2 0x20A SWAP1 PUSH2 0x3FD JUMP JUMPDEST PUSH1 0x40 MLOAD DUP1 SWAP2 SUB SWAP1 REVERT JUMPDEST PUSH1 0x1 DUP2 SWAP1 SSTORE PUSH1 0x40 MLOAD DUP2 DUP2 MSTORE PUSH32 0x4273D0736F60E0DEDFE745E86718093D8EC8646EBD2A60CD60643EECED565811 SWAP1 PUSH1 0x20 ADD PUSH1 0x40 MLOAD DUP1 SWAP2 SUB SWAP1 LOG1 POP JUMP JUMPDEST PUSH0 SLOAD PUSH1 0x1 PUSH1 0x1 PUSH1 0xA0 SHL SUB AND CALLER EQ PUSH2 0x277 JUMPI PUSH1 0x40 MLOAD PUSH3 0x461BCD PUSH1 0xE5 SHL DUP2 MSTORE PUSH1 0x4 ADD PUSH2 0x20A SWAP1 PUSH2 0x3FD JUMP JUMPDEST PUSH0 DUP1 SLOAD PUSH1 0xFF PUSH1 0xA0 SHL NOT AND PUSH1 0x1 PUSH1 0xA0 SHL OR SWAP1 SSTORE JUMP JUMPDEST PUSH0 SLOAD PUSH1 0x1 PUSH1 0x1 PUSH1 0xA0 SHL SUB AND CALLER EQ PUSH2 0x2B4 JUMPI PUSH1 0x40 MLOAD PUSH3 0x461BCD PUSH1 0xE5 SHL DUP2 MSTORE PUSH1 0x4 ADD PUSH2 0x20A SWAP1 PUSH2 0x3FD JUMP JUMPDEST PUSH0 DUP1 SLOAD PUSH1 0x1 PUSH1 0x1 PUSH1 0xA0 SHL SUB NOT AND PUSH1 0x1 PUSH1 0x1 PUSH1 0xA0 SHL SUB SWAP3 SWAP1 SWAP3 AND SWAP2 SWAP1 SWAP2 OR SWAP1 SSTORE JUMP JUMPDEST PUSH0 SLOAD PUSH1 0x1 PUSH1 0x1 PUSH1 0xA0 SHL SUB AND CALLER EQ PUSH2 0x2FE JUMPI PUSH1 0x40 MLOAD PUSH3 0x461BCD PUSH1 0xE5 SHL DUP2 MSTORE PUSH1 0x4 ADD PUSH2 0x20A SWAP1 PUSH2 0x3FD JUMP JUMPDEST POP JUMP JUMPDEST DUP1 CALLDATALOAD PUSH1 0x1 PUSH1 0x1 PUSH1 0xA0 SHL SUB DUP2 AND DUP2 EQ PUSH2 0x317 JUMPI PUSH0 DUP1 REVERT JUMPDEST SWAP2 SWAP1 POP JUMP JUMPDEST PUSH0 DUP1 PUSH0 PUSH1 0x40 DUP5 DUP7 SUB SLT ISZERO PUSH2 0x32E JUMPI PUSH0 DUP1 REVERT JUMPDEST PUSH2 0x337 DUP5 PUSH2 0x301 JUMP JUMPDEST SWAP3 POP PUSH1 0x20 DUP5 ADD CALLDATALOAD PUSH8 0xFFFFFFFFFFFFFFFF DUP1 DUP3 GT ISZERO PUSH2 0x353 JUMPI PUSH0 DUP1 REVERT JUMPDEST DUP2 DUP7 ADD SWAP2 POP DUP7 PUSH1 0x1F DUP4 ADD SLT PUSH2 0x366 JUMPI PUSH0 DUP1 REVERT JUMPDEST DUP2 CALLDATALOAD DUP2 DUP2 GT ISZERO PUSH2 0x374 JUMPI PUSH0 DUP1 REVERT JUMPDEST DUP8 PUSH1 0x20 DUP3 DUP6 ADD ADD GT ISZERO PUSH2 0x385 JUMPI PUSH0 DUP1 REVERT JUMPDEST PUSH1 0x20 DUP4 ADD SWAP5 POP DUP1 SWAP4 POP POP POP POP SWAP3 POP SWAP3 POP SWAP3 JUMP JUMPDEST PUSH0 PUSH1 0x20 DUP3 DUP5 SUB SLT ISZERO PUSH2 0x3A8 JUMPI PUSH0 DUP1 REVERT JUMPDEST POP CALLDATALOAD SWAP2 SWAP1 POP JUMP JUMPDEST PUSH0 PUSH1 0x20 DUP3 DUP5 SUB SLT ISZERO PUSH2 0x3BF JUMPI PUSH0 DUP1 REVERT JUMPDEST PUSH2 0x3C8 DUP3 PUSH2 0x301 JUMP JUMPDEST SWAP4 SWAP3 POP POP POP JUMP JUMPDEST PUSH1 0x20 DUP2 MSTORE DUP2 PUSH1 0x20 DUP3 ADD MSTORE DUP2 DUP4 PUSH1 0x40 DUP4 ADD CALLDATACOPY PUSH0 DUP2 DUP4 ADD PUSH1 0x40 SWAP1 DUP2 ADD SWAP2 SWAP1 SWAP2 MSTORE PUSH1 0x1F SWAP1 SWAP3 ADD PUSH1 0x1F NOT AND ADD ADD SWAP2 SWAP1 POP JUMP JUMPDEST PUSH1 0x20 DUP1 DUP3 MSTORE PUSH1 0x9 SWAP1 DUP3 ADD MSTORE PUSH9 0x3737BA1037BBB732B9 PUSH1 0xB9 SHL PUSH1 0x40 DUP3 ADD MSTORE PUSH1 0x60 ADD SWAP1 JUMP INVALID LOG2 PUSH5 0x6970667358 0x22 SLT KECCAK256 GT 0x2D DUP10 POP 0x4C BASEFEE 0xDE 0x29 0xEC 0xA9 0xDB LOG0 EXTCODECOPY 0x27 LOG3 0xC4 PUSH9 0x872E4A4C131BCBA657 PUSH20 0x3BF4732A1C64736F6C6343000819003300000000 "
        }
      },
      "storageLayout": {
        "storage": [
          {
            "astId": 3,
            "contract": "fixtures/real-world/governance-downgrade/proposed/GovernedVault.sol:GovernedVault",
            "label": "owner",
            "offset": 0,
            "slot": "0",
            "type": "t_address"
          },
          {
            "astId": 5,
            "contract": "fixtures/real-world/governance-downgrade/proposed/GovernedVault.sol:GovernedVault",
            "label": "paused",
            "offset": 20,
            "slot": "0",
            "type": "t_bool"
          },
          {
            "astId": 7,
            "contract": "fixtures/real-world/governance-downgrade/proposed/GovernedVault.sol:GovernedVault",
            "label": "value",
            "offset": 0,
            "slot": "1",
            "type": "t_uint256"
          },
          {
            "astId": 9,
            "contract": "fixtures/real-world/governance-downgrade/proposed/GovernedVault.sol:GovernedVault",
            "label": "asset",
            "offset": 0,
            "slot": "2",
            "type": "t_address"
          }
        ],
        "types": {
          "t_address": {
            "encoding": "inplace",
            "label": "address",
            "numberOfBytes": "20"
          },
          "t_bool": {
            "encoding": "inplace",
            "label": "bool",
            "numberOfBytes": "1"
          },
          "t_uint256": {
            "encoding": "inplace",
            "label": "uint256",
            "numberOfBytes": "32"
          }
        }
      }
    }
  }
}