{
  "fixtures/real-world/uups-unsafe-implementation/current/UUPSUnsafeVault.sol": {
    "UUPSUnsafeVault": {
      "abi": [
        {
          "inputs": [],
          "stateMutability": "nonpayable",
          "type": "constructor"
        },
        {
          "anonymous": false,
          "inputs": [
            {
              "indexed": true,
              "internalType": "address",
              "name": "implementation",
              "type": "address"
            },
            {
              "indexed": false,
              "internalType": "bytes",
              "name": "data",
              "type": "bytes"
            }
          ],
          "name": "Upgraded",
          "type": "event"
        },
        {
          "anonymous": false,
          "inputs": [
            {
              "indexed": false,
              "internalType": "uint256",
              "name": "value",
              "type": "uint256"
            }
          ],
          "name": "ValueUpdated",
          "type": "event"
        },
        {
          "inputs": [],
          "name": "asset",
          "outputs": [
            {
              "internalType": "address",
              "name": "",
              "type": "address"
            }
          ],
          "stateMutability": "view",
          "type": "function"
        },
        {
          "inputs": [
            {
              "internalType": "address",
              "name": "initialOwner",
              "type": "address"
            },
            {
              "internalType": "address",
              "name": "initialAsset",
              "type": "address"
            }
          ],
          "name": "initialize",
          "outputs": [],
          "stateMutability": "nonpayable",
          "type": "function"
        },
        {
          "inputs": [],
          "name": "owner",
          "outputs": [
            {
              "internalType": "address",
              "name": "",
              "type": "address"
            }
          ],
          "stateMutability": "view",
          "type": "function"
        },
        {
          "inputs": [],
          "name": "paused",
          "outputs": [
            {
              "internalType": "bool",
              "name": "",
              "type": "bool"
            }
          ],
          "stateMutability": "view",
          "type": "function"
        },
        {
          "inputs": [
            {
              "internalType": "uint256",
              "name": "newValue",
              "type": "uint256"
            }
          ],
          "name": "setValue",
          "outputs": [],
          "stateMutability": "nonpayable",
          "type": "function"
        },
        {
          "inputs": [
            {
              "internalType": "address",
              "name": "newImplementation",
              "type": "address"
            },
            {
              "internalType": "bytes",
              "name": "data",
              "type": "bytes"
            }
          ],
          "name": "upgradeToAndCall",
          "outputs": [],
          "stateMutability": "payable",
          "type": "function"
        },
        {
          "inputs": [],
          "name": "value",
          "outputs": [
            {
              "internalType": "uint256",
              "name": "",
              "type": "uint256"
            }
          ],
          "stateMutability": "view",
          "type": "function"
        }
      ],
      "evm": {
        "bytecode": {
          "object": "6080604052348015600e575f80fd5b50601f5f805460ff19166001179055565b6104138061002c5f395ff3fe60806040526004361061006e575f3560e01c80634f1ef2861161004c5780634f1ef2861461012457806355241077146101375780635c975abb146101565780638da5cb5b14610185575f80fd5b806338d52e0f146100725780633fa4f245146100ae578063485cc955146100d1575b5f80fd5b34801561007d575f80fd5b50600254610091906001600160a01b031681565b6040516001600160a01b0390911681526020015b60405180910390f35b3480156100b9575f80fd5b506100c360015481565b6040519081526020016100a5565b3480156100dc575f80fd5b506101226100eb3660046102eb565b5f8054610100600160a81b0319166101006001600160a01b0394851602179055600280546001600160a01b03191691909216179055565b005b61012261013236600461031c565b6101a8565b348015610142575f80fd5b50610122610151366004610398565b6101f9565b348015610161575f80fd5b505f5461017590600160a81b900460ff1681565b60405190151581526020016100a5565b348015610190575f80fd5b505f546100919061010090046001600160a01b031681565b6101b183610283565b826001600160a01b03167f3b864ad8da4ee758946f28fb3d0eaeb4d28c980ee47bf13c0c7fe3808855cfcf83836040516101ec9291906103af565b60405180910390a2505050565b5f5461010090046001600160a01b031633146102485760405162461bcd60e51b81526020600482015260096024820152683737ba1037bbb732b960b91b60448201526064015b60405180910390fd5b60018190556040518181527f4273d0736f60e0dedfe745e86718093d8ec8646ebd2a60cd60643eeced5658119060200160405180910390a150565b5f5461010090046001600160a01b031633146102cd5760405162461bcd60e51b81526020600482015260096024820152683737ba1037bbb732b960b91b604482015260640161023f565b50565b80356001600160a01b03811681146102e6575f80fd5b919050565b5f80604083850312156102fc575f80fd5b610305836102d0565b9150610313602084016102d0565b90509250929050565b5f805f6040848603121561032e575f80fd5b610337846102d0565b9250602084013567ffffffffffffffff80821115610353575f80fd5b818601915086601f830112610366575f80fd5b813581811115610374575f80fd5b876020828501011115610385575f80fd5b6020830194508093505050509250925092565b5f602082840312156103a8575f80fd5b5035919050565b60208152816020820152818360408301375f818301604090810191909152601f909201601f1916010191905056fea2646970667358221220595212701ff2ff34b9704fbacb9eaee34d3286092fc03a42ffba946c4b0caf6e64736f6c63430008190033",
          "opcodes": "PUSH1 0x80 PUSH1 0x40 MSTORE CALLVALUE DUP1 ISZERO PUSH1 0xE JUMPI PUSH0 DUP1 REVERT JUMPDEST POP PUSH1 0x1F PUSH0 DUP1 SLOAD PUSH1 0xFF NOT AND PUSH1 0x1 OR SWAP1 SSTORE JUMP JUMPDEST PUSH2 0x413 DUP1 PUSH2 0x2C PUSH0 CODECOPY PUSH0 RETURN INVALID PUSH1 0x80 PUSH1 0x40 MSTORE PUSH1 0x4 CALLDATASIZE LT PUSH2 0x6E JUMPI PUSH0 CALLDATALOAD PUSH1 0xE0 SHR DUP1 PUSH4 0x4F1EF286 GT PUSH2 0x4C JUMPI DUP1 PUSH4 0x4F1EF286 EQ PUSH2 0x124 JUMPI DUP1 PUSH4 0x55241077 EQ PUSH2 0x137 JUMPI DUP1 PUSH4 0x5C975ABB EQ PUSH2 0x156 JUMPI DUP1 PUSH4 0x8DA5CB5B EQ PUSH2 0x185 JUMPI PUSH0 DUP1 REVERT JUMPDEST DUP1 PUSH4 0x38D52E0F EQ PUSH2 0x72 JUMPI DUP1 PUSH4 0x3FA4F245 EQ PUSH2 0xAE JUMPI DUP1 PUSH4 0x485CC955 EQ PUSH2 0xD1 JUMPI JUMPDEST PUSH0 DUP1 REVERT JUMPDEST CALLVALUE DUP1 ISZERO PUSH2 0x7D JUMPI PUSH0 DUP1 REVERT JUMPDEST POP PUSH1 0x2 SLOAD PUSH2 0x91 SWAP1 PUSH1 0x1 PUSH1 0x1 PUSH1 0xA0 SHL SUB AND DUP2 JUMP JUMPDEST PUSH1 0x40 MLOAD PUSH1 0x1 PUSH1 0x1 PUSH1 0xA0 SHL SUB SWAP1 SWAP2 AND DUP2 MSTORE PUSH1 0x20 ADD JUMPDEST PUSH1 0x40 MLOAD DUP1 SWAP2 SUB SWAP1 RETURN JUMPDEST CALLVALUE DUP1 ISZERO PUSH2 0xB9 JUMPI PUSH0 DUP1 REVERT JUMPDEST POP PUSH2 0xC3 PUSH1 0x1 SLOAD DUP2 JUMP JUMPDEST PUSH1 0x40 MLOAD SWAP1 DUP2 MSTORE PUSH1 0x20 ADD PUSH2 0xA5 JUMP JUMPDEST CALLVALUE DUP1 ISZERO PUSH2 0xDC JUMPI PUSH0 DUP1 REVERT JUMPDEST POP PUSH2 0x122 PUSH2 0xEB CALLDATASIZE PUSH1 0x4 PUSH2 0x2EB JUMP JUMPDEST PUSH0 DUP1 SLOAD PUSH2 0x100 PUSH1 0x1 PUSH1 0xA8 SHL SUB NOT AND PUSH2 0x100 PUSH1 0x1 PUSH1 0x1 PUSH1 0xA0 SHL SUB SWAP5 DUP6 AND MUL OR SWAP1 SSTORE PUSH1 0x2 DUP1 SLOAD PUSH1 0x1 PUSH1 0x1 PUSH1 0xA0 SHL SUB NOT AND SWAP2 SWAP1 SWAP3 AND OR SWAP1 SSTORE JUMP JUMPDEST STOP JUMPDEST PUSH2 0x122 PUSH2 0x132 CALLDATASIZE PUSH1 0x4 PUSH2 0x31C JUMP JUMPDEST PUSH2 0x1A8 JUMP JUMPDEST CALLVALUE DUP1 ISZERO PUSH2 0x142 JUMPI PUSH0 DUP1 REVERT JUMPDEST POP PUSH2 0x122 PUSH2 0x151 CALLDATASIZE PUSH1 0x4 PUSH2 0x398 JUMP JUMPDEST PUSH2 0x1F9 JUMP JUMPDEST CALLVALUE DUP1 ISZERO PUSH2 0x161 JUMPI PUSH0 DUP1 REVERT JUMPDEST POP PUSH0 SLOAD PUSH2 0x175 SWAP1 PUSH1 0x1 PUSH1 0xA8 SHL SWAP1 DIV PUSH1 0xFF AND DUP2 JUMP JUMPDEST PUSH1 0x40 MLOAD SWAP1 ISZERO ISZERO DUP2 MSTORE PUSH1 0x20 ADD PUSH2 0xA5 JUMP JUMPDEST CALLVALUE DUP1 ISZERO PUSH2 0x190 JUMPI PUSH0 DUP1 REVERT JUMPDEST POP PUSH0 SLOAD PUSH2 0x91 SWAP1 PUSH2 0x100 SWAP1 DIV PUSH1 0x1 PUSH1 0x1 PUSH1 0xA0 SHL SUB AND DUP2 JUMP JUMPDEST PUSH2 0x1B1 DUP4 PUSH2 0x283 JUMP JUMPDEST DUP3 PUSH1 0x1 PUSH1 0x1 PUSH1 0xA0 SHL SUB AND PUSH32 0x3B864AD8DA4EE758946F28FB3D0EAEB4D28C980EE47BF13C0C7FE3808855CFCF DUP4 DUP4 PUSH1 0x40 MLOAD PUSH2 0x1EC SWAP3 SWAP2 SWAP1 PUSH2 0x3AF JUMP JUMPDEST PUSH1 0x40 MLOAD DUP1 SWAP2 SUB SWAP1 LOG2 POP POP POP JUMP JUMPDEST PUSH0 SLOAD PUSH2 0x100 SWAP1 DIV PUSH1 0x1 PUSH1 0x1 PUSH1 0xA0 SHL SUB AND CALLER EQ PUSH2 0x248 JUMPI PUSH1 0x40 MLOAD PUSH3 0x461BCD PUSH1 0xE5 SHL DUP2 MSTORE PUSH1 0x20 PUSH1 0x4 DUP3 ADD MSTORE PUSH1 0x9 PUSH1 0x24 DUP3 ADD MSTORE PUSH9 0x3737BA1037BBB732B9 PUSH1 0xB9 SHL PUSH1 0x44 DUP3 ADD MSTORE PUSH1 0x64 ADD JUMPDEST PUSH1 0x40 MLOAD DUP1 SWAP2 SUB SWAP1 REVERT JUMPDEST PUSH1 0x1 DUP2 SWAP1 SSTORE PUSH1 0x40 MLOAD DUP2 DUP2 MSTORE PUSH32 0x4273D0736F60E0DEDFE745E86718093D8EC8646EBD2A60CD60643EECED565811 SWAP1 PUSH1 0x20 ADD PUSH1 0x40 MLOAD DUP1 SWAP2 SUB SWAP1 LOG1 POP JUMP JUMPDEST PUSH0 SLOAD PUSH2 0x100 SWAP1 DIV PUSH1 0x1 PUSH1 0x1 PUSH1 0xA0 SHL SUB AND CALLER EQ PUSH2 0x2CD JUMPI PUSH1 0x40 MLOAD PUSH3 0x461BCD PUSH1 0xE5 SHL DUP2 MSTORE PUSH1 0x20 PUSH1 0x4 DUP3 ADD MSTORE PUSH1 0x9 PUSH1 0x24 DUP3 ADD MSTORE PUSH9 0x3737BA1037BBB732B9 PUSH1 0xB9 SHL PUSH1 0x44 DUP3 ADD MSTORE PUSH1 0x64 ADD PUSH2 0x23F JUMP JUMPDEST POP JUMP JUMPDEST DUP1 CALLDATALOAD PUSH1 0x1 PUSH1 0x1 PUSH1 0xA0 SHL SUB DUP2 AND DUP2 EQ PUSH2 0x2E6 JUMPI PUSH0 DUP1 REVERT JUMPDEST SWAP2 SWAP1 POP JUMP JUMPDEST PUSH0 DUP1 PUSH1 0x40 DUP4 DUP6 SUB SLT ISZERO PUSH2 0x2FC JUMPI PUSH0 DUP1 REVERT JUMPDEST PUSH2 0x305 DUP4 PUSH2 0x2D0 JUMP JUMPDEST SWAP2 POP PUSH2 0x313 PUSH1 0x20 DUP5 ADD PUSH2 0x2D0 JUMP JUMPDEST SWAP1 POP SWAP3 POP SWAP3 SWAP1 POP JUMP JUMPDEST PUSH0 DUP1 PUSH0 PUSH1 0x40 DUP5 DUP7 SUB SLT ISZERO PUSH2 0x32E JUMPI PUSH0 DUP1 REVERT JUMPDEST PUSH2 0x337 DUP5 PUSH2 0x2D0 JUMP JUMPDEST SWAP3 POP PUSH1 0x20 DUP5 ADD CALLDATALOAD PUSH8 0xFFFFFFFFFFFFFFFF DUP1 DUP3 GT ISZERO PUSH2 0x353 JUMPI PUSH0 DUP1 REVERT JUMPDEST DUP2 DUP7 ADD SWAP2 POP DUP7 PUSH1 0x1F DUP4 ADD SLT PUSH2 0x366 JUMPI PUSH0 DUP1 REVERT JUMPDEST DUP2 CALLDATALOAD DUP2 DUP2 GT ISZERO PUSH2 0x374 JUMPI PUSH0 DUP1 REVERT JUMPDEST DUP8 PUSH1 0x20 DUP3 DUP6 ADD ADD GT ISZERO PUSH2 0x385 JUMPI PUSH0 DUP1 REVERT JUMPDEST PUSH1 0x20 DUP4 ADD SWAP5 POP DUP1 SWAP4 POP POP POP POP SWAP3 POP SWAP3 POP SWAP3 JUMP JUMPDEST PUSH0 PUSH1 0x20 DUP3 DUP5 SUB SLT ISZERO PUSH2 0x3A8 JUMPI PUSH0 DUP1 REVERT JUMPDEST POP CALLDATALOAD SWAP2 SWAP1 POP JUMP JUMPDEST PUSH1 0x20 DUP2 MSTORE DUP2 PUSH1 0x20 DUP3 ADD MSTORE DUP2 DUP4 PUSH1 0x40 DUP4 ADD CALLDATACOPY PUSH0 DUP2 DUP4 ADD PUSH1 0x40 SWAP1 DUP2 ADD SWAP2 SWAP1 SWAP2 MSTORE PUSH1 0x1F SWAP1 SWAP3 ADD PUSH1 0x1F NOT AND ADD ADD SWAP2 SWAP1 POP JUMP INVALID LOG2 PUSH5 0x6970667358 0x22 SLT KECCAK256 MSIZE MSTORE SLT PUSH17 0x1FF2FF34B9704FBACB9EAEE34D3286092F 0xC0 GASPRICE TIMESTAMP SELFDESTRUCT 0xBA SWAP5 PUSH13 0x4B0CAF6E64736F6C6343000819 STOP CALLER "
        }
      },
      "storageLayout": {
        "storage": [
          {
            "astId": 3,
            "contract": "fixtures/real-world/uups-unsafe-implementation/current/UUPSUnsafeVault.sol:UUPSUnsafeVault",
            "label": "_initializersDisabled",
            "offset": 0,
            "slot": "0",
            "type": "t_bool"
          },
          {
            "astId": 16,
            "contract": "fixtures/real-world/uups-unsafe-implementation/current/UUPSUnsafeVault.sol:UUPSUnsafeVault",
            "label": "owner",
            "offset": 1,
            "slot": "0",
            "type": "t_address"
          },
          {
            "astId": 18,
            "contract": "fixtures/real-world/uups-unsafe-implementation/current/UUPSUnsafeVault.sol:UUPSUnsafeVault",
            "label": "paused",
            "offset": 21,
            "slot": "0",
            "type": "t_bool"
          },
          {
            "astId": 20,
            "contract": "fixtures/real-world/uups-unsafe-implementation/current/UUPSUnsafeVault.sol:UUPSUnsafeVault",
            "label": "value",
            "offset": 0,
            "slot": "1",
            "type": "t_uint256"
          },
          {
            "astId": 22,
            "contract": "fixtures/real-world/uups-unsafe-implementation/current/UUPSUnsafeVault.sol:UUPSUnsafeVault",
            "label": "asset",
            "offset": 0,
            "slot": "2",
            "type": "t_address"
          }
        ],
        "types": {
          "t_address": {
            "encoding": "inplace",
            "label": "address",
            "numberOfBytes": "20"
          },
          "t_bool": {
            "encoding": "inplace",
            "label": "bool",
            "numberOfBytes": "1"
          },
          "t_uint256": {
            "encoding": "inplace",
            "label": "uint256",
            "numberOfBytes": "32"
          }
        }
      }
    }
  }
}